:020000020000FC
:1000000008C03F065B4F666D7D077F6F777C395E6A
:10001000797108E00EBF0FEF0DBF00E00093C10043
:100020000093C2000FEF0AB907B9289A299A05E090
:1000300005BD00E806BD332722271127F0E0E2E0E6
:10004000E30F04910BB902D013D0F8CF189B04C072
:10005000199B08C06627089560FD08956160339577
:100060003F70089561FD089562603A953F7008956C
:1000700005B300FF0895A89A2395293131F422276A
:0C00800013951F7018B900E806BD089524
:00000001FF
