:020000020000FC
:1000000008C03F065B4F666D7D077F6F777C395E6A
:10001000797108E00EBF0FEF0DBF00E00093C10043
:100020000093C2000FEF0AB907B9289A299A05E090
:1000300005BD3327222711275527662780E0F0E0EA
:10004000E2E0E30F04910BB903D022D013D0F7CF35
:10005000189B04C0199B08C06627089560FD089589
:10006000616033953F70089561FD089562603A952F
:100070003F700895032F101709F009C0992700E178
:100080008027982B912B98B911E011950895089528
:100090009927A89B0895A89A2395263051F42227E2
:1000A00053955A3031F4552713951F70982B912B87
:0400B00098B908955E
:00000001FF
